:100000000C9466050C948E050C948E050C948E054C
:100010000C948E050C948E050C948E050C948E0514
:100020000C948E050C948E050C948E050C94E1179F
:100030000C948E050C948E050C948E050C948E05F4
:100040000C943F170C948E050C94AF170C948917E1
:100050000C948E050C948E050C948E050C948E05D4
:100060000C9445180C948E0500000000003E5B4F78
:100070005B3E3E6B4F6B3E1C3E7C3E1C183C7E3C08
:10008000181C577D571C1C5E7F5E1C00183C180016
:10009000FFE7C3E7FF0018241800FFE7DBE7FF30A6
:1000A000483A060E2629792926407F050507407F14
:1000B00005253F5A3CE73C5A7F3E1C1C08081C1C87
:1000C0003E7F14227F22145F5F005F5F06097F017D
:1000D0007F006689956A606060606094A2FFA29468
:1000E00008047E040810207E201008082A1C080836
:1000F0001C2A08081E101010100C1E0C1E0C303884
:100100003E3830060E3E0E06000000000000005F84
:1001100000000007000700147F147F14242A7F2AA0
:100120001223130864623649562050000807030062
:10013000001C2241000041221C002A1C7F1C2A08AE
:10014000083E080800807030000808080808000011
:1001500060600020100804023E5149453E00427F85
:10016000400072494949462141494D331814127FD4
:100170001027454545393C4A494931412111090774
:100180003649494936464949291E000014000000F5
:1001900040340000000814224114141414140041C7
:1001A00022140802015909063E415D594E7C121184
:1001B000127C7F494949363E414141227F414141BC
:1001C0003E7F494949417F090909013E4141517337
:1001D0007F0808087F00417F41002040413F017FA8
:1001E000081422417F404040407F021C027F7F0470
:1001F00008107F3E4141413E7F090909063E4151B9
:10020000215E7F09192946264949493203017F01A8
:10021000033F4040403F1F2040201F3F4038403FA9
:10022000631408146303047804036159494D4300BF
:100230007F4141410204081020004141417F0402F6
:10024000010204404040404000030708002054548D
:1002500078407F284444383844444428384444286B
:100260007F385454541800087E090218A4A49C78BE
:100270007F0804047800447D40002040403D007F1A
:100280001028440000417F40007C047804787C08FA
:100290000404783844444438FC18242418182424CE
:1002A00018FC7C08040408485454542404043F44B3
:1002B000243C4040207C1C2040201C3C4030403CE2
:1002C00044281028444C9090907C4464544C440042
:1002D00008364100000077000000413608000201A6
:1002E0000204023C2623263C1EA1A161123A404092
:1002F000207A38545455592155557941225454780F
:1003000042215554784020545579400C1E527212A7
:100310003955555559395454545939555454580030
:1003200000457C410002457D420001457C407D1234
:1003300011127DF0282528F07C5455450020545496
:100340007C547C0A097F4932494949323A44444441
:100350003A324A4848303A4141217A3A424020787C
:10036000009DA0A07D3D4242423D3D4040403D3C7D
:1003700024FF2424487E4943662B2FFC2F2BFF09A2
:1003800029F620C0887E0903205454794100004496
:100390007D413048484A32384040227A007A0A0A81
:1003A000727D0D19317D2629292F282629292926F4
:1003B00030484D4020380808080808080808382F39
:1003C00010C8ACBA2F102834FA00007B00000814C3
:1003D0002A142222142A14085500550055AA55AA99
:1003E00055AAFF55FF55FF000000FF00101010FF39
:1003F00000141414FF001010FF00FF1010F010F094
:10040000141414FC001414F700FF0000FF00FF1484
:1004100014F404FC141417101F10101F101F1414D0
:10042000141F00101010F0000000001F101010101A
:100430001F10101010F010000000FF10101010100E
:1004400010101010FF10000000FF140000FF00FF4C
:1004500000001F10170000FC04F4141417101714E8
:1004600014F404F40000FF00F7141414141414140A
:10047000F700F7141414171410101F101F1414147D
:10048000F4141010F010F000001F101F0000001FE7
:1004900014000000FC140000F010F01010FF10FF1A
:1004A000141414FF141010101F00000000F010FFAF
:1004B000FFFFFFFFF0F0F0F0F0FFFFFF0000000093
:1004C00000FFFF0F0F0F0F0F3844443844FC4A4A17
:1004D0004A347E02020606027E027E0263554941CC
:1004E000633844443C04407E201E2006027E020203
:1004F00099A5E7A5991C2A492A1C4C7201724C3017
:100500004A4D4D303048784830BC625A463D3E49ED
:100510004949007E0101017E2A2A2A2A2A44445F91
:10052000444440514A444040444A51400000FF0185
:1005300003E080FF000008086B6B08361236243693
:10054000060F090F060000181800000010100030F8
:1005500040FF0101001F01011E00191D1712003C80
:100560003C3C3C0000000000000103070F1F3F7FE0
:100570000080C0E0F0F8FCFEDB40A4A62EAF200017
:10058000A1C8D300408DAED580A800006000000057
:100590000000000000000000000000E0000000007B
:1005A00000000000000000000001E000000000006A
:1005B000000000000000000001F00000000000004A
:1005C0000000000000000003F00000000000000038
:1005D00000000000000007F0000000000000000024
:1005E000000000000007F80000000000000000000C
:1005F000000000000FF800000003C0007E000001B2
:10060000E0007F0FF800000003C000FE000001E0E2
:1006100000FFEFF800000003C000FE000001E00052
:10062000FFFFF800000003C000F00000000F007F93
:10063000FE7FC0000003C000F00000000F003FFE7E
:100640007FF83FF1FBCFFCFEF3BC3DEFE01FFE7FE8
:10065000FF7FFBFFDFFEFEFFBC3DEFE01FC6FFFF9D
:100660007FFBFFDFFEFEFFBC3DEFE00FE3C7FE7840
:100670007BC3DE1EF0FFBC3DEF0007FF87FC787BED
:10068000C3DE1EF0F83C3DEF0001FFFFF0007BC32E
:10069000C01EF0F03C3DEF0001F37FE03FFBC3CF15
:1006A000FEF0F03C3DEF0003E33F807FFBC3DFFE45
:1006B000F0F03C3DEF0007E73C00787BC3DE1EF026
:1006C000F03C3DEF0007FFBE00787BC3DE1EF0F07C
:1006D0003C3DEF0007FFFE00787BC3DE1EF0F03CE0
:1006E0003DEF000FFFFE007FFBFFDFFEF0F03FFD60
:1006F000EFE00FFFFF007FFBFFDFFEF0F03FFDEFBD
:10070000E00FF9FF003E79F9CF9EF0F01F3DE7E0E2
:100710001FF1FF0000000000000000000000001FAB
:1007200080FF007FFFFFFFFFFFFFFFFFFFE01C00D8
:100730007F007FFFFFFFFEB46D888D18E000001F73
:10074000007FFFFFFFFE95AD7DB577E000000F0055
:100750007FFFFFFFFEA5AD9D8D19E0000006007F25
:10076000FFFFFFFEB5ADEDB57EE00000000000012B
:100770008000000000000000000003800000000076
:10078000000000000007C0000000000000000000A2
:1007900007C00000000000000000000FC0000000C3
:1007A0000000000000001FE000000000000000004A
:1007B000001FE00000000000000000003FE000001B
:1007C000000000000000003FF000000000000000FA
:1007D00000007FF0000000000000001FF87FF00024
:1007E0000000000000003FFE7FF00000000000005D
:1007F000003FFF7FF0000000000000001FFFFBE053
:10080000000000000000000FFFF9FFC00000000022
:1008100000000FFFF9FFF800000000000007FFF1E3
:10082000FFFF00000000000003FC73FFFF800000DA
:1008300000000001FE3FFFFF80000000000000FFFD
:100840001E0FFF000000000000007FFE1FFC0000E4
:1008500000000000003FFFFFF80000000000000063
:100860000FDFFFE0000000000000001F19FFC000C4
:100870000000000000003F3CFF00000000000000FE
:10088000007E7CF800000000000000007FFE7C007D
:1008900000000000000000FFFFFC0000000000005E
:1008A0000000FFFFFE0000000000000000FFFFFE50
:1008B0000000000000000001FFEFFE00000000004B
:1008C000000001FFCFFE0000000000000003FF0752
:1008D000FE0000000000000003FC07FE0000000016
:1008E00000000003F003FE00000000000000018093
:1008F00000FE000000000000000000007E0000007C
:10090000000000000000003E0000000000000000A9
:1009100000000C000000000000078000FC00000345
:10092000C0000000078001FC000003C000000007B9
:100930008001FC000003C0000000078001E000000F
:10094000001E000000078001E00000001E007FE3A1
:10095000F79FF9FDE7787BDFC0FFF7FFBFFDFDFFE5
:10096000787BDFC0FFF7FFBFFDFDFF787BDFC0F0C6
:10097000F787BC3DE1FF787BDE00F0F787BC3DE107
:10098000F0787BDE0000F787803DE1E0787BDE00D9
:100990007FF7879FFDE1E0787BDE00FFF787BFFDF3
:1009A000E1E0787BDE00F0F787BC3DE1E0787BDEBC
:1009B00000F0F787BC3DE1E0787BDE00F0F787BC14
:1009C0003DE1E0787BDE00FFF7FFBFFDE1E07FFB6C
:1009D000DFC0FFF7FFBFFDE1E07FFBDFC07CF3F38B
:1009E0009F3DE1E03E7BCFC0000000000000000022
:1009F000000000FFFFFFFFFFFFFFFFFFFFC0FFFF43
:100A0000FFFFFD68DB111A31C0FFFFFFFFFD2B5A0E
:100A1000FB6AEFC0FFFFFFFFFD4B5B3B1A33C0FFDC
:100A2000FFFFFFFD6B5BDB6AFDC053534431333086
:100A300036206261C59F6C6174C4B16C616D616484
:100A4000C4B12E20456B72616E206261C49F6C61DF
:100A50006E74C4B173C4B16EC4B1206B6F6E747226
:100A60006F6C206564696E2E000000000024002772
:100A7000002A0000000000250028002B00000000D4
:100A800000230026002900040404040404040402D2
:100A9000020202020203030303030301020408101B
:100AA00020408001020408102001020408102000E8
:100AB000000008000201000003040700000000001D
:100AC0000000002200FF21006419E12011241FBE54
:100AD000CFEFD8E0DEBFCDBF11E0A0E0B1E0ECE8A1
:100AE000FAE402C005900D92A43BB107D9F723E0C8
:100AF000A4EBB1E001C01D92A83AB207E1F715E0FE
:100B0000C5E6D5E004C02197FE010E942123C4362A
:100B1000D107C9F70E94E7190C9439250C940000FD
:100B20000895FC01538D448D252F30E0842F90E0F3
:100B3000821B930B541710F0CF96089501970895D8
:100B4000FC01918D828D981761F0A28DAE0FBF2FA1
:100B5000B11D5D968C91928D9F5F9F73928F90E0F7
:100B600008958FEF9FEF0895FC01918D828D981766
:100B700031F0828DE80FF11D858D90E008958FEFA3
:100B80009FEF0895FC01918D228D892F90E0805C6C
:100B90009F4F821B91098F7399270895FC01A48DA3
:100BA000A80FB92FB11DA35ABF4F2C91848D90E08F
:100BB00001968F739927848FA689B7892C93A08972
:100BC000B1898C91837080648C93938D848D9813FC
:100BD00006C00288F389E02D80818F7D808308958F
:100BE000EF92FF920F931F93CF93DF93EC0181E07D
:100BF000888F9B8D8C8D98131AC0E889F989808124
:100C000085FF15C09FB7F894EE89FF896083E88956
:100C1000F98980818370806480839FBF81E090E048
:100C2000DF91CF911F910F91FF90EF900895F62ED5
:100C30000B8D10E00F5F1F4F0F731127E02E8C8D6F
:100C40008E110CC00FB607FCFACFE889F9898081B4
:100C500085FFF5CFCE010E94CE05F1CFEB8DEC0FD5
:100C6000FD2FF11DE35AFF4FF0829FB7F8940B8FD1
:100C7000EA89FB8980818062CFCFCF93DF93EC013B
:100C8000888D8823B9F0AA89BB89E889F9898C9174
:100C900085FD03C0808186FD0DC00FB607FCF7CF30
:100CA0008C9185FFF2CF808185FFEDCFCE010E9430
:100CB000CE05E9CFDF91CF9108958BEB92E00E94B2
:100CC000C20521E0892B09F420E0822F089580E0FD
:100CD00090E0892B29F00E945D0681110C940000A0
:100CE0000895833081F028F4813099F08230A9F0A2
:100CF00008958730A9F08830C9F08430B1F480912C
:100D000080008F7D03C0809180008F77809380006A
:100D1000089584B58F7784BD089584B58F7DFBCF0A
:100D20008091B0008F778093B00008958091B000DB
:100D30008F7DF9CFCF93DF93282F30E0F901E15574
:100D4000F54F8491F901E556F54FD491F901E95732
:100D5000F54FC491CC23A1F081110E947106EC2FB4
:100D6000F0E0EE0FFF1FE358F54FA591B491EC9121
:100D7000ED2381E090E009F480E0DF91CF910895C8
:100D800080E090E0FACF1F93CF93DF93282F30E0DD
:100D9000F901E155F54F8491F901E556F54FD491EC
:100DA000F901E957F54FC491CC23A9F0162F811111
:100DB0000E947106EC2FF0E0EE0FFF1FED58F54F8B
:100DC000A591B4918FB7F894EC91111108C0D0950A
:100DD000DE23DC938FBFDF91CF911F910895DE2B2F
:100DE000F8CFCF93DF9390E0FC01E556F54F2491C7
:100DF0008957954FFC0184918823D1F090E0880FAA
:100E0000991FFC01E759F54FA591B491FC01ED58EC
:100E1000F54FC591D491623071F49FB7F8943C912D
:100E2000822F809583238C93E8812E2B28839FBF6C
:100E3000DF91CF9108958FB7F894EC912E2B2C93DE
:100E40008FBFF6CF3FB7F8948091B3029091B40270
:100E5000A091B502B091B60226B5A89B05C02F3F60
:100E600019F00196A11DB11D3FBFBA2FA92F982FD0
:100E70008827BC01CD01620F711D811D911D42E0CB
:100E8000660F771F881F991F4A95D1F708958F9293
:100E90009F92AF92BF92CF92DF92EF92FF924B015F
:100EA0005C010E9422076B017C010E9422076C19E1
:100EB0007D098E099F09683E734081059105A8F35D
:100EC00021E0821A9108A108B10888EEC80E83E0DB
:100ED000D81EE11CF11C81149104A104B10429F76E
:100EE000FF90EF90DF90CF90BF90AF909F908F904A
:100EF000089508950895AF92BF92CF92DF92EF9236
:100F0000FF920F931F93CF93DF936C017B018B01B3
:100F1000040F151FEB015E01AE18BF08C017D10703
:100F200059F06991D601ED91FC910190F081E02D8D
:100F3000C6010995892B79F7C501DF91CF911F91E2
:100F40000F91FF90EF90DF90CF90BF90AF900895FA
:100F5000EF92FF920F931F93CF93DF93EC01EC80FE
:100F6000FD806E157F050CF070C057FF04C0240F84
:100F7000351F50E040E08E819F81FA01E20FF31FA0
:100F80008E179F071CF49C01241B350B12161306A9
:100F90000CF05BC0922F842F8695869586958E9D4A
:100FA000D0018F9DB00D11246A0F7B1FAF8DB8A1AA
:100FB000A60FB71F477049F188E0841B482F682FA0
:100FC00070E0FB01E059FA4FE491281708F063C084
:100FD000621B71092FEF30E002C0359527956A95A5
:100FE000E2F7E2230130110539F0B0F102301105CA
:100FF00061F58C91E82702C08C91E82BEC93941753
:1010000020F12C813D81A20FB31FE92FE41BE830B2
:1010100078F00230110521F58E2F9C9190959C93CC
:101020002C813D81A20FB31F88508830B0F7E77044
:10103000EE2359F0F0E0E859FA4FE4910130110540
:10104000F9F010F10230110519F1DF91CF911F91E4
:101050000F91FF90EF900895E0958C91E823CECF0B
:1010600081E00115110509F480E081959E2F8C9394
:101070002C813D81A20FB31F98509830C0F7D7CF75
:101080008C91E82BEC93E1CFE0958C91E823FACF9B
:101090008C91E827F7CF0130110509F4ADCFE0F2CC
:1010A0000230110509F4A5CFAE0DBF1DAECF0F93D1
:1010B0001F93CF93DF9377FF04C0260F371F70E095
:1010C00060E0DC011496CD91DC91FB01E20FF31F8F
:1010D000CE17DF071CF49E01261B370B12161306D2
:1010E0004CF5FA0157FD3796A3E0F595E795AA95DB
:1010F000E1F7EC9FD001ED9FB00DFC9FB00D1124E6
:101100006A0F7B1FDC015F96ED91FC91E60FF71FE4
:101110004770552781E090E001C0880F4A95EAF7B3
:10112000482F0130110559F0A8F02E0F3F1F023053
:101130001105E1F0DF91CF911F910F9108952E0FCE
:101140003F1FE217F307B1F38191DF011197842B61
:101150008C93F7CF80952E0F3F1FE217F30751F3C3
:101160009191DF01119798239C93F7CFE217F30732
:1011700009F38191DF01119784278C93F7CF0F93A7
:101180001F93FA01DC0156964C9156974230E9F0D4
:101190004330A1F1413061F514964D915C91DA0133
:1011A000AE1BBF0BFD01E21BF30B77FD0BC0DC0197
:1011B00016964D915C916417750724F4AB01BF013D
:1011C0000E9457081F910F91089514964D915C91BC
:1011D000DA01A61BB70BBD0161507109DC0116963F
:1011E0004D915C91DA01AE1BBF0BFD01E21BF30BCD
:1011F00077FDE8CFAF010E94A807E4CF16964D9186
:101200005C91DA01A61BB70BBD0161507109CDCF0E
:101210000F931F93FA01DC0156964C91569742307A
:10122000A9F0433091F1413019F514964D915C913C
:10123000DA01AE1BBF0BFD013197F7FD04C0AB0116
:10124000BF010E94A8071F910F91089514964D9118
:101250005C91DA01A61BB70BBD01DC0116964D911E
:101260005C91DA01AE1BBF0BFD013197621B730B62
:10127000F7FDE9CFDC0116964D915C91E417F50777
:1012800014F7AF010E945708DECF16964D915C917E
:10129000DA01A61BB70BBD01621B730BCECFFC019D
:1012A00077FD64C080859185681779070CF05EC072
:1012B00057FD5CC082859385481759070CF056C0CE
:1012C00086898230B1F0833029F1813041F4848104
:1012D0009581841B950BAB01BC01615071092130D4
:1012E000310509F108F443C02230310509F463C027
:1012F000089584819581DC01A61BB70BBD01615067
:10130000710986819781DC01A41BB50BAD014150A9
:101310005109E5CF86819781861B970BBA01AC01F5
:1013200041505109DCCFCA0157FD0796A3E09595BE
:101330008795AA95E1F7A481B5818A9F90018B9F3B
:10134000300D9A9F300D1124620F731F078CF0A18E
:10135000E02DE60FF71F4770552721E030E001C070
:10136000220F4A95EAF78081822B80830895CA0173
:1013700057FD079633E0959587953A95E1F7A48157
:10138000B5818A9F90018B9F300D9A9F300D11245B
:10139000620F731F078CF0A1E02DE60FF71F477057
:1013A000552781E090E001C0880F4A95EAF78095C3
:1013B00090818923DACFCA0157FD079623E09595DE
:1013C00087952A95E1F7A481B5818A9F90018B9F2B
:1013D000300D9A9F300D1124620F731F078CF0A1FE
:1013E000E02DE60FF71F4770552721E030E001C0E0
:1013F000220F4A95EAF780818227B7CF08958EBDE4
:1014000000000DB407FEFDCF8EB508958CBD9DBDC7
:1014100008950895FC016370668B8481958126810F
:101420003781613039F0633029F0918780873387C5
:1014300022870895318720879387828708952F9286
:101440003F924F925F926F927F928F929F92AF9254
:10145000BF92CF92DF92EF92FF920F931F93CF93A1
:10146000DF93CDB7DEB76A970FB6F894DEBF0FBE35
:10147000CDBF9A8F898F7A8369834A01D22E1887CC
:101480000F833701BC2CDC0159962D913C915A9762
:101490002115310509F015C118968D919C91199768
:1014A000681779070CF0D7C11A968D919C9148174F
:1014B00059070CF0D0C14C2C512CB6E0CB9E600DDE
:1014C000711D11247C876B87161617060CF0C3C19B
:1014D000EA2DF0E0FA87E98793E0EE0FFF1F9A9577
:1014E000E1F7F88BEF87CF01840F951F18161906C7
:1014F0000CF0B1C1A98DBA8D58968C91811104C0A0
:10150000BFEABD1508F4D394A98DBA8DED91FC9175
:1015100011970284F385E02DCD010995B5E0DB9E9E
:10152000C0011124E981FA81FC83EB83312C212C49
:101530009C0128593F4F388F2F8B4A2D50E05E8BEE
:101540004D8BEF89F88DE20DF31D44919E828D82C3
:10155000D12CC12C69817A81620D731D7A8B698BC4
:10156000842F90E09C8B8B8BE98DFA8DA081B181CB
:1015700040FF82C0F1E0BF126FC0AF126DC01C9679
:10158000ED91FC912F813885A4014C0D5D1D698979
:101590007A89898D9A8D0995EB89FC89F595E7956E
:1015A0004E2F5FEFC51AD50A6D817E818D899E8988
:1015B000680F791F7E836D8398E0C916D10481F688
:1015C000AFEF2A1A3A0AEB81FC81E40DF51DFC838A
:1015D000EB83F5E02F16310409F0B3CF2F81388566
:1015E00026153705B9F0A98DBA8DED91FC91B1E0C2
:1015F000BB1257C0AB1255C069817A816B5F7F4FB8
:101600000088F189E02D830128E030E0A401898D74
:101610009A8D0995A98DBA8DED91FC911197068847
:10162000F789E02DCD016A960FB6F894DEBF0FBEA4
:10163000CDBFDF91CF911F910F91FF90EF90DF9081
:10164000CF90BF90AF909F908F907F906F905F9062
:101650004F903F902F9009941E96ED91FC91EF8052
:10166000F88409851A8592014D815E816B817C81A8
:10167000898D9A8D099590CF2F813885261537054C
:1016800009F48ACF31E0B31207C0A31205C01C963B
:10169000ED91FC91930178CF1E96ED91FC91730131
:1016A000E0CF6B857C85641975090684F785E02D8C
:1016B00073010F8518899201A401898D9A8D09956E
:1016C000A9CFF90134969491329745915491D91A42
:1016D000B7E0DB9E400D511D1124F9012591349195
:1016E0003C8B2B8BFA0125903490FA013296749042
:1016F00031963491398B329664903196449041E022
:101700004C1518F04A1508F07FC0662D062C000C09
:10171000770B7C836B83842D042C000C990B9E83A8
:101720008D83A98DBA8DED91FC9111970284F3857B
:10173000E02DCD010995512CD12CC12CEA2DF0E0E2
:10174000FA87E9872B2D30E03C872B87A401440DD5
:10175000511D47FC5A95588F4F8B69817A81660DD0
:10176000711D67FC7A957E876D877989C71608F0A9
:1017700051CF2C2D30E04D815E81420F531FA98542
:10178000BA854A9FC0014B9F900D5A9F900D11241E
:10179000FC01E80DF91DF88BEF87852D612C4F8931
:1017A000588D420F531F5E8B4D8B671408F050C04D
:1017B00044244394480E877041F4C1010196EB899B
:1017C000FC89E20DF31DD4901C01D7FE19C0A98D30
:1017D000BA8DED91FC91662D70E0B1E0BB1219C09D
:1017E000AB1217C02D853E85620F731F0484F585EB
:1017F000E02D2F8138854D895E89898D9A8D0995D7
:10180000DD0C6394842DD1CF1E821D821C821B822D
:1018100088CF4B815C81640F751FAB85BC856A9F47
:10182000C0016B9F900D7A9F900D112469817A8180
:10183000680F791F0684F785E02DEF80F88409850D
:101840001A859D014F855889898D9A8D0995D8CF24
:10185000570CC3948ACF6A960FB6F894DEBF0FBEBA
:10186000CDBFDF91CF911F910F91FF90EF90DF904F
:10187000CF90BF90AF909F908F907F906F905F9030
:101880004F903F902F9008958F929F92AF92CF925A
:10189000EF92FF920F931F93CF93DF93EC01262FCC
:1018A000898D9A8D009709F051C06A30D1F41D8658
:1018B0001C868D8948E0849F900111248E859F8528
:1018C000820F931F9F878E8781E090E0DF91CF91F9
:1018D0001F910F91FF90EF90CF90AF909F908F90BE
:1018E00008956D3089F3CC88AD888F898823C1F045
:1018F0008C859D8536E0C39E800D911D1124488501
:1019000059854817590764F44E855F851D861C86E6
:1019100038E0A39EC0011124840F951F9F878E87F6
:10192000EA88FB88088919894E855F856C857D85E5
:10193000CE010E941F0A2C898C859D8546E0249F3C
:10194000800D911D11249D878C87BECF6A3069F46C
:101950001D861C86FC013896E4912D898E859F8515
:10196000E29F800D911D1124ADCF6D3009F4ACCFF5
:10197000FC0134963491631708F4A6CF3296E491B3
:10198000E61708F4A1CFFC01329685909490462F7B
:10199000431B342F47E0349F800C911C1124F40129
:1019A000329634913196E4913323A9F1EE2399F1E3
:1019B000CC88F4013596E491AD884F89442301F138
:1019C0000E2E000CFF0BE30FF11DCE9EA001CF9E4B
:1019D000500D11246C857D85460F571F68857985CC
:1019E000641775076CF44E855F851D861C86FC01A7
:1019F0003896E491AE9E400D511D11245F874E87AD
:101A0000EA88FB88088919894E855F856C857D8504
:101A1000CE010E941F0AF4013496E4912C898C8532
:101A20009D85E29F800D911D11248DCF6F927F9235
:101A30008F929F92AF92BF92CF92DF92EF92FF92DE
:101A40000F931F93CF93DF93EC016B015A01390180
:101A50004801E881F9810284F385E02D0995E88148
:101A6000F9810288F389E02D87019301A501B60170
:101A7000CE010995A501480D591D41505109E88134
:101A8000F9810288F389E02D9301B601CE01099511
:101A9000E881F9810088F189E02D9401A501B60162
:101AA000CE010995C60CD71CB60161507109E881B9
:101AB000F9810088F189E02D9401A501CE010995F5
:101AC000E881F9810688F789E02DCE01DF91CF9179
:101AD0001F910F91FF90EF90DF90CF90BF90AF904C
:101AE0009F908F907F906F9009946F927F928F92CA
:101AF0009F92AF92BF92CF92DF92EF92FF920F939D
:101B00001F93CF93DF935C01EB016A014901380118
:101B10008701DC01ED91FC916217730719F56416DA
:101B200075062CF0962D872D3A01C92ED82E9601D8
:101B3000261937092F5F3F4F048CF58DE02DA30147
:101B4000BE01C5010995DF91CF911F910F91FF90C3
:101B5000EF90DF90CF90BF90AF909F908F907F904D
:101B60006F9008954615570591F42617370724F00E
:101B7000892D4B01C22FD82F9E01281939092F5FBB
:101B80003F4F068CF78DE02DA601B401DACF028419
:101B9000F385E02D0995D501ED91FC910488F58937
:101BA000E02D83019401A601BE01C5010995D5016F
:101BB000ED91FC910688F789E02DC501DF91CF9169
:101BC0001F910F91FF90EF90DF90CF90BF90AF905B
:101BD0009F908F907F906F900994EF92FF920F9358
:101BE0001F93DC011A960D911C911B9718962D914D
:101BF0003C911997ED91FC9100A0F1A1E02D7B01A2
:101C000050E040E070E060E009951F910F91FF9077
:101C1000EF9008954F925F926F927F928F929F9272
:101C2000AF92BF92CF92DF92EF92FF920F931F93EA
:101C3000CF93DF936C012B015A0139014801DC017C
:101C4000ED91FC910284F385E02D0995E201640C8D
:101C5000751CD601ED91FC91C615D7055CF4008882
:101C6000F189E02D87019401A501BE01C601099506
:101C70002196EFCF0688F789E02DC601DF91CF913D
:101C80001F910F91FF90EF90DF90CF90BF90AF909A
:101C90009F908F907F906F905F904F9009948F925C
:101CA0009F92AF92BF92CF92DF92EF92FF920F93EB
:101CB0001F93CF93DF93EC015B014A016901E88137
:101CC000F9810284F385E02D099595012C0D3D1DC8
:101CD00021503109E881F9810488F589E02D7801E6
:101CE0008401A401B501CE010995E881F981068836
:101CF000F789E02DCE01DF91CF911F910F91FF90D9
:101D0000EF90DF90CF90BF90AF909F908F9009940D
:101D10008F929F92AF92BF92CF92DF92EF92FF92FB
:101D20000F931F93CF93DF93EC015B014A0169018D
:101D30007801E881F9810284F385E02D0995C80CCA
:101D4000D91C860101501109E881F9810488F589BF
:101D5000E02D9501A401B501CE010995E881F98135
:101D60000688F789E02DCE01DF91CF911F910F9169
:101D7000FF90EF90DF90CF90BF90AF909F908F90AB
:101D80000994EF92FF920F931F93DC01ED91FC9168
:101D900000A0F1A1E02D09951F910F91FF90EF9008
:101DA00008950F931F93DC01ED91FC91068CF78D44
:101DB000E02D09951F910F9108950F931F93DC015A
:101DC000ED91FC91048CF58DE02D09951F910F91FB
:101DD00008952F923F924F925F926F927F928F92CF
:101DE0009F92AF92BF92CF92DF92EF92FF920F93AA
:101DF0001F93CF93DF9300D000D000D0CDB7DEB7D4
:101E00006C017C836B835E834D839A01220F331FA9
:101E10002F5F3F4FAB018D819E81481B590B01E025
:101E200010E0B60184E693E00E94DD0E81E090E0D0
:101E30003C012D813E81621A730AC90191958195F9
:101E400091099C01220F331F3A8329834D805E80C4
:101E500022242394312CF12CE12C77FC0DC02D8110
:101E60003E81215031093E832D8389819A810296DA
:101E70009A838983680E791E9FEFE91AF90A22E096
:101E8000220E311C620C731C8D819E818E159F0564
:101E90000CF467C04C01880C991C9FEF891A990AB1
:101EA00001E010E09401AB80BC808D819E81A81A76
:101EB000B90AA501B6016E0D7F1D84E693E00E946C
:101EC000DD0E9401A501B6016E197F0984E693E049
:101ED0000E94DD0E2D813E812415350519F1AA24BD
:101EE000A394B12CAE18BF088B819C81A80EB91E9B
:101EF000B601640D751D01E010E0410192E0891A00
:101F000091089401A50184E693E00E94DD0EB601DC
:101F1000641975099401A50184E693E00E94DD0E21
:101F20004D805E808D819E81E816F9060CF495CF78
:101F300026960FB6F894DEBF0FBECDBFDF91CF91CE
:101F40001F910F91FF90EF90DF90CF90BF90AF90D7
:101F50009F908F907F906F905F904F903F902F90C9
:101F600008952D813E812415350509F0B8CFE0CFC5
:101F7000DC01ED91FC910084F185E02D09943F9204
:101F80004F925F926F927F928F929F92AF92BF9289
:101F9000CF92DF92EF92FF920F931F93CF93DF9335
:101FA0005C017B014A016901390187E0680E711CFF
:101FB00093E0759467949A95E1F72B01400E511EBA
:101FC00010E000E0312CD0E0C0E0CE01877099270E
:101FD000330C892B59F4FE0183E0F595E7958A953A
:101FE000E1F7E00FF11FE80DF91D349037FE0AC04C
:101FF00021E030E0A701B5016C0F7D1F84E693E07E
:102000000E94B80F2196CC16DD06F9F68FEFE81A7C
:10201000F80A060D171DE414F504A9F6DF91CF9117
:102020001F910F91FF90EF90DF90CF90BF90AF90F6
:102030009F908F907F906F905F904F903F9008950A
:102040002F923F924F925F926F927F928F929F92C8
:10205000AF92BF92CF92DF92EF92FF920F931F93B6
:10206000CF93DF9300D000D000D0CDB7DEB73C01D6
:102070006A013E832D83FC82EB825801A41AB50AC3
:10208000B7FE03C0B194A194B1088D809E80861ADA
:10209000970A97FE03C09194819491088A149B0437
:1020A0005CF0902F812F0D811E819D838E839C2D4E
:1020B0008D2D6B01692F782F0C151D055CF09D810E
:1020C0008E817E836D83692F782F902F812F8601DB
:1020D000C92ED82E1601201A310A2B012D813E81DE
:1020E000421A530A57FE03C051944194510871019A
:1020F00037FE03C03FEFE31AF30AF594E7948D81AE
:102100009E81861797075CF5A1E0B0E0BA83A983AA
:10211000C016D1064CF1D301ED91FC910484F585F4
:10212000E02D2B813C81A8016D817E818A149B0466
:102130001CF04D815E81B801C3010995E418F508D2
:10214000F7FE0AC02D813E8189819A81280F391FAF
:102150003E832D83E20CF31C0F5F1F4FD9CF2FEF6F
:102160003FEF3A832983D4CF26960FB6F894DEBF8B
:102170000FBECDBFDF91CF911F910F91FF90EF90D8
:10218000DF90CF90BF90AF909F908F907F906F9097
:102190005F904F903F902F900895089520911C02DA
:1021A000260F3327331F21323105ECF420914002F2
:1021B000FC0190E080E0243069F082E00895A09175
:1021C0001C022191AC0144505E4FA40FB52FB11DEC
:1021D0002C930196861798F380911C02680F6093E8
:1021E0001C0280E0089581E008951092400281E091
:1021F000809342021092410261E082E10E94C30694
:1022000061E083E10E94C306E9EBF0E080818E7F0C
:10221000808380818D7F808388E48093B80085E40B
:102220008093BC000895CF93DF9391E09093FB01DE
:102230008823B9F0C091B800D091BA008091BC0059
:102240008A7B8093BC0060E082E10E94C30660E06C
:1022500083E10E94C3060E94F510D093BA00C09398
:10226000B800DF91CF910895E091910280919002A2
:10227000E81730F4F0E0EA52FE4F808190E00895D4
:102280008FEF9FEF089590919102809190022FEF30
:102290003FEF981748F4E92FF0E0EA52FE4F208113
:1022A00030E09F5F90939102C90108958091900260
:1022B00090919102891B990B0895CF92DF92EF9232
:1022C000FF920F931F93CF93DF937C01CB018A0181
:1022D0002091BA02222389F0EB016B01C40ED51EB6
:1022E000CC15DD0569F06991D701ED91FC91019064
:1022F000F081E02DC7010995F3CF642F0E94CE1025
:10230000C801DF91CF911F910F91FF90EF90DF9067
:10231000CF900895CF93DF931F92CDB7DEB7698337
:102320002091BA022223F9F02091B702203258F00E
:1023300021E030E0FC013383228390E080E00F90C5
:10234000DF91CF9108958091B802E82FF0E0EA5430
:10235000FE4F998190838F5F8093B8028093B7027C
:1023600081E090E0ECCF61E0CE0101960E94CE10BA
:10237000F7CFCF92DF92EF92FF920F931F93CF93FD
:10238000DF93D091B70281E0D13208F09CC0C091B8
:10239000B9020E9422076B017C01809140028111E9
:1023A0006CC082E08093400281E0809342028FEF14
:1023B00080933F0210926402D0936302A6EBB1E0D7
:1023C000E3E4F2E080E0D8138DC0109265028091C2
:1023D0006502CC0FC82BC093650280914102813009
:1023E00009F084C0109241020E9422076B017C0117
:1023F000809165028093BB008091F7019091F80174
:10240000A091F901B091FA01892B8A2B8B2BA1F0B5
:102410000E9422070091F7011091F8012091F90123
:102420003091FA016C197D098E099F09061717076B
:102430002807390708F442C08091BC0083FDD8CF3B
:1024400085EC8093BC000E9422076B017C01809187
:102450004002823009F44CC080913F028F3F09F462
:1024600069C080913F02803209F466C080913F02CA
:10247000803309F463C084E026C08091F701909115
:10248000F801A091F901B091FA01892B8A2B8B2BCD
:1024900009F483CF0E9422070091F7011091F801FF
:1024A0002091F9013091FA016C197D098E099F097B
:1024B000061717072807390708F06FCF8091F60134
:1024C0000E94131185E01092B8021092B702109288
:1024D000BA02DF91CF911F910F91FF90EF90DF90A3
:1024E000CF9008959D9191938F5F6DCF85EEA9CF89
:1024F0008091F7019091F801A091F901B091FA0152
:10250000892B8A2B8B2B09F4A2CF0E9422070091E2
:10251000F7011091F8012091F9013091FA016C193D
:102520007D098E099F09061717072807390708F044
:102530008ECFC4CF80E0C7CF82E0C5CF83E0C3CFCA
:10254000EF92FF920F931F93CF93DF937C01C62FDF
:102550008091810390918203009709F459C02091E2
:10256000850331E03093BA022093B9021092B80289
:102570001092B702DC01ED91FC910190F081E02D09
:1025800060E009958701EE24E394F12CD1E0C1507D
:102590008091810390918203CF3F91F1B0E2EB16DD
:1025A000F104D8F00E94B9118091810390918203C7
:1025B00020918503D093BA022093B9021092B802F9
:1025C0001092B702DC01ED91FC910190F081E02DB9
:1025D00060E00995EE24E394F12C809181039091C1
:1025E0008203F8016491DC01ED91FC910190F0818E
:1025F000E02D0995BFEFEB1AFB0A0F5F1F4FC7CF06
:10260000DF91CF911F910F91FF90EF900C94B91132
:10261000E0919103F09192039081809197038095CE
:10262000892380838701C15008F438C0F801849160
:1026300020917F0330918003232B29F00E94FF0912
:102640000F5F1F4FF0CF28E030E040E8E0918D03AE
:10265000F0918E0390919503582F5423D9F0508117
:10266000952B9083E0918F03F0919003908150918E
:102670009603952B9083E0918F03F0919003508106
:10268000909196039095952390834695215031091A
:10269000E9F6D6CF508190959523E3CFDF91CF9186
:1026A0001F910F91FF90EF9008951F93CF93DF93A9
:1026B000EC018D8D9E8D009721F1162F29A131E01F
:1026C0003093BA022093B9021092B8021092B70266
:1026D000DC01ED91FC910190F081E02D60E0099525
:1026E0008D8D9E8DDC01ED91FC910190F081E02DAE
:1026F000612F09958D8D9E8DDF91CF911F910C9447
:10270000B911ADA5BEA59C918BA9809589238C9309
:102710008B8D9C8D892B31F0862FDF91CF911F916E
:102720000C94FF0928E030E080E8A9A5BAA599A992
:10273000462F4823C1F04C91942B9C93ABA5BCA58C
:102740009C914AA9942B9C93ABA5BCA54C919AA9AA
:10275000909594239C9386952150310931F7DF9110
:10276000CF911F9108954C9190959423E6CFDF92DD
:10277000EF92FF920F931F93CF93DF93809181038A
:1027800090918203892B09F498C02091990330918C
:102790009A0340919B0350919C0360E074E284EFA4
:1027A00090E00E9443222051310941095109569578
:1027B0004795379527952093B80065E083EC9AE01C
:1027C0000E94A01260916803615084E693E00E9429
:1027D000551320916A0330916B03C901079697FD49
:1027E000079633E0959587953A95E1F72091680330
:1027F00030916903829F8001839F100D929F100D7D
:102800001124C0918303D09184038091810390911E
:1028100082030C0F1D1F009709F48FC020918503C0
:1028200031E03093BA022093B9021092B8021092AC
:10283000B702DC01ED91FC910190F081E02D60E4A4
:102840000995EE24E394F12CDD24D3948091810347
:10285000909182030C171D0709F446C0B0E2EB16F5
:10286000F104D8F00E94B911809181039091820304
:1028700020918503D092BA022093B9021092B80237
:102880001092B702DC01ED91FC910190F081E02DF6
:1028900060E40995EE24E394F12C809181039091FA
:1028A00082036991DC01ED91FC910190F081E02DB2
:1028B0000995BFEFEB1AFB0AC9CF80917F03909176
:1028C0008003892B31F08091A2039091A3030E9491
:1028D000060AE0919303F09194039081809198030C
:1028E00080958923808369CF0E94B91180918103EB
:1028F00090918203892B09F461C020919D0330914E
:102900009E0340919F035091A00360E074E284EF26
:1029100090E00E9443222051310941095109569506
:102920004795379527952093B800DF91CF911F9158
:102930000F91FF90EF90DF900895E0919103F09157
:102940009203808190919703892B80830C171D0738
:1029500069F2899120917F0330918003232B19F034
:102960000E94FF09F3CF28E030E040E8E0918D03BA
:10297000F0918E0390919503582F5423D9F05081F4
:10298000952B9083E0918F03F0919003908150916B
:102990009603952B9083E0918F03F09190035081E3
:1029A00090919603909595239083469521503109F7
:1029B000E9F6CCCF508190959523E3CFE091930336
:1029C000F0919403808190919803892B8083ADCFFF
:1029D0001F93CF93DF93EC01162F8D8D9E8D892B46
:1029E000B1F12DA93EA94FA958AD60E074E284EF82
:1029F00090E00E9443222051310941095109569526
:102A00004795379527952093B80066EA111167EA34
:102A1000CE010E9455138D8D9E8D892B41F129ADDC
:102A20003AAD4BAD5CAD60E074E284EF90E00E94A3
:102A3000432220513109410951095695479537954F
:102A400027952093B800DF91CF911F9108958B8D2A
:102A50009C8D892B21F08EAD9FAD0E94060AEFA5BB
:102A6000F8A990818CA9809589238083CECFEFA58A
:102A7000F8A980819CA9892B8083E5CF90E080E034
:102A800008956AE070E00E940D238A30910508F0F5
:102A9000B1C0FC01E25BFA4E0C9421235815741569
:102AA0008A15A415B615C815D615EC15EE15F4152E
:102AB00061E082E00E94C30661E083E00E94C306F9
:102AC00061E084E00E94C30661E085E00E94C306E5
:102AD00061E086E00E94C30661E087E00E94C306D1
:102AE00060E088E00C94C30660E082E00E94C306C8
:102AF00061E083E00E94C30661E084E00E94C306B7
:102B000060E085E00E94C30660E086E00E94C306A4
:102B100060E0E3CF61E082E00E94C30661E083E011
:102B20000E94C30660E084E00E94C30661E085E085
:102B30000E94C30661E086E00E94C30660E087E071
:102B40000E94C30661E0CDCF61E082E00E94C3062F
:102B500061E083E00E94C30661E084E00E94C30656
:102B600061E085E00E94C30660E0E5CF60E082E0BE
:102B70000E94C30661E083E00E94C30661E084E036
:102B80000E94C30660E085E00E94C30660E01FC0AB
:102B900061E082E00E94C30660E083E00E94C30619
:102BA00061E084E00E94C30661E0EDCF61E082E075
:102BB0000E94C30660E083E00E94C30661E084E0F7
:102BC0000E94C30661E085E00E94C30661E086E0E2
:102BD0000E94C30661E0B3CF61E087CF61E082E08D
:102BE0000E94C30661E0E7CF61E082E00E94C30675
:102BF00061E0D3CF089520916A0330916B03C9013E
:102C0000079697FD079623E0959587952A95E1F716
:102C10002091680330916903829FA001839F500D2A
:102C2000929F500D112470E060E080918303909199
:102C300084030C942B25FB0101900020E9F73197C8
:102C4000AF01461B570BDC01ED91FC910280F38133
:102C5000E02D0994CF93DF93BC0184E693E00E94BA
:102C60001B16EC016CE771E084E693E00E941B16F2
:102C70008C0F9D1FDF91CF910895CF93DF9381E05B
:102C8000809378038093790381E090E090937703B9
:102C9000809376039093750380937403C4E1D0E02E
:102CA000D0937103C0937003D0937303C0937203E6
:102CB0008091B4019091B501009789F58FE791E07B
:102CC0000E942A16D0937103C093700388E290E0AB
:102CD000909373038093720388E891E00E942A1610
:102CE0000E94B71380E00E949A06892B59F5109232
:102CF000B5011092B4018AE00E949A06892B61F412
:102D00008091B4019091B501892B41F581E090E06B
:102D10009093AD028093AC02DF91CF91089501971B
:102D2000F9F680E991E00E942A16D0937103C093CE
:102D3000700388E290E0909373038093720389E9B3
:102D400091E0CCCF89E00E949A06892BA1F681E020
:102D500090E09093B5018093B401CDCFDF91CF91F6
:102D60000C94FB150E941D250F931F93CF93DF93A7
:102D7000EC0188819981009759F02A813B812617BF
:102D8000370730F081E0DF91CF911F910F910895C7
:102D90008B016F5F7F4F0E946024009759F09983E9
:102DA00088831B830A832C813D81232B59F7FC01E7
:102DB0001082E8CF80E0E7CFEF92FF920F931F934E
:102DC000CF93DF93EC017B018A01BA010E94B41614
:102DD00028813981811114C02115310519F0C901EB
:102DE0000E94D723198218821D821C821B821A829C
:102DF000CE01DF91CF911F910F91FF90EF90089539
:102E00001D830C83B701C9010E943225F1CF85EDE6
:102E10008093BC008091F7019091F801A091F90195
:102E2000B091FA010796A11DB11D23E0B695A795B3
:102E3000979587952A95D1F72091BC0024FD03C072
:102E40001092400208954091F7015091F80160916D
:102E5000F9017091FA01452B462B472B69F3009736
:102E6000A105B10541F02AE22A95F1F700C00197CA
:102E7000A109B109E1CF8091F6010C9413111F92C1
:102E80000F920FB60F9211242F933F938F939F931E
:102E9000AF93BF938091AF029091B002A091B10225
:102EA000B091B2023091AE0223E0230F2D3758F5D6
:102EB0000196A11DB11D2093AE028093AF029093A5
:102EC000B002A093B102B093B2028091B30290918C
:102ED000B402A091B502B091B6020196A11DB11D38
:102EE0008093B3029093B402A093B502B093B6025C
:102EF000BF91AF919F918F913F912F910F900FBEF6
:102F00000F901F90189526E8230F0296A11DB11D62
:102F1000D2CF1F920F920FB60F9211242F933F938F
:102F20004F935F936F937F938F939F93AF93BF93D1
:102F3000EF93FF938BEB92E00E94CE05FF91EF9110
:102F4000BF91AF919F918F917F916F915F914F91C1
:102F50003F912F910F900FBE0F901F9018951F92C9
:102F60000F920FB60F9211242F938F939F93EF938D
:102F7000FF93E091CB02F091CC028081E091D102ED
:102F8000F091D20282FD1BC090818091D4028F5FAC
:102F90008F732091D502821741F0E091D402F0E0C6
:102FA000E554FD4F958F8093D402FF91EF919F914F
:102FB0008F912F910F900FBE0F901F9018958081C9
:102FC000F4CF1F920F920FB60F9211242F933F93BD
:102FD0008F939F93EF93FF9380918A0287FF1FC087
:102FE000109285001092840080918A028F5F8093F6
:102FF0008A0280918A0287FF04C080918A028C3005
:10300000ACF08091840090918500049680349C49B6
:1030100090F1809184009091850004962EC080915B
:103020008A0287FFE1CF80918A02DECF209184005F
:1030300030918500E0918A028E2FEE0F990BFC01F2
:10304000EE0FFF1FE80FF91FEA59FD4F81819281B2
:10305000820F931F909389008093880080918A0249
:10306000FF91EF919F918F913F912F910F900FBE04
:103070000F901F90189580E49CE9909389008093AD
:1030800088008FEF80938A02EBCF1F920F920FB6CA
:103090000F9211242F933F934F935F936F937F93DE
:1030A0008F939F93AF93BF93EF93FF938091B9005A
:1030B000887F803609F44AC0F0F5883209F4A7C049
:1030C00018F5803109F49BC0B8F4882309F4F9C0DD
:1030D000883009F494C0FF91EF91BF91AF919F9117
:1030E0008F917F916F915F914F913F912F910F90B1
:1030F0000FBE0F901F901895883109F488C0803258
:1031000051F780933F0214C0803409F49DC040F40D
:103110008033B9F38833F9F680933F0285ECB0C071
:10312000803509F485C0883509F496C0883499F64D
:103130000E940717D0CF883909F48CC038F588373A
:1031400029F050F4883611F0803729F683E0809317
:10315000400210923E0257C0883809F47BC0803983
:1031600019F0803809F0B7CF80913E02803208F024
:1031700071C0E0913E0281E08E0F80933E0280910B
:10318000BB00F0E0E25EFD4F80833DC0803B39F044
:10319000E0F4803A09F479C0883A09F09CCF84E0E1
:1031A0008093400210921D0210921C02E0918E0248
:1031B000F0918F02099580911C0281110FC081E06E
:1031C00080931C021092FC0109C0803C09F4A6CF38
:1031D000883C09F4A3CF883B09F07DCFE0911D0224
:1031E00081E08E0F80931D02F0E0E450FE4F80815D
:1031F0008093BB0090911D0280911C0229C0809198
:1032000065028093BB0085EC8093BC0064CF9091F5
:10321000640280916302981758F5E091640281E09E
:103220008E0F80936402F0E0ED5BFD4F8081E9CF6B
:10323000E091640281E08E0F809364028091BB0074
:10324000F0E0ED5BFD4F808390916402809163021A
:103250009817C8F285E8D8CFE091640281E08E0F1C
:10326000809364028091BB00F0E0ED5BFD4F8083B2
:103270008091420281115CCF81E08093410284EA17
:103280008093BC001092400226CF85EC8093BC0056
:103290001092400280913E02803230F4E0913E0272
:1032A000F0E0E25EFD4F108260913E0270E0E0913E
:1032B0008C02F0918D028EE192E0099510923E020F
:1032C0000ACF10923F0234CFEBEBF2E0138212826E
:1032D00048EE53E060E070E0448355836683778373
:1032E00080E391E09183808385EC90E095878487EB
:1032F00084EC90E09787868780EC90E0918B808BC0
:1033000081EC90E0938B828B82EC90E0958B848BA8
:1033100086EC90E0978B868B118E128E138E148E16
:10332000A8E5B3E013961C921E92129714964D9343
:103330005D936D937C93179782E491E011969C9333
:103340008E93E4E6F3E01382128220E830E03583C6
:10335000248380E490E09783868331872087938756
:103360008287168A158614861786168681E0858BD5
:10337000848B2FEF3FEF338B228B318B208B878B0E
:10338000108E128E118E84E591E091838083148ECD
:10339000138EB68FA58F10A2178E8FEF84A385A3EF
:1033A00086A387A380A780E89AE1A6E0B0E085AB7A
:1033B00096ABA7ABB0AF80EA96E8A1E0B0E081AFF2
:1033C00092AFA3AFB4AF80E586AF17AE0895CF93A9
:1033D000DF93CDB7DEB7E4970FB6F894DEBF0FBE2C
:1033E000CDBF789484B5826084BD84B5816084BD8E
:1033F00085B5826085BD85B5816085BD80916E0093
:10340000816080936E0010928100809181008260C3
:103410008093810080918100816080938100809100
:1034200080008160809380008091B10084608093EF
:10343000B1008091B00081608093B00080917A00EB
:10344000846080937A0080917A00826080937A0011
:1034500080917A00816080937A0080917A00806800
:1034600080937A001092C10080918303909184032D
:10347000892B11F10E94FB1520916A0330916B0397
:103480008091680390916903213231050CF04BC0A3
:10349000B9016052710977FF02C06F5F7F4F759568
:1034A00067958357910997FD019600E210E023E7A5
:1034B00030E04AE855E04AC020916A0330916B033E
:1034C000C901079697FD0796B3E095958795BA953C
:1034D000E1F72091680330916903AC01429FC0017C
:1034E000439F900D529F900D11240E943B23909377
:1034F000840380938303892B09F0BCCF0AE21AE08E
:10350000F8016491662341F08BEB92E00E94F00594
:103510000F5F1F4F892BA1F76CE771E08BEB92E0F7
:103520000E941B16FFCFB9016054710977FF02C0DA
:103530006F5F7F4F759567958255910997FD01964D
:1035400000E410E022E530E04AE657E095958795E3
:103550000E94BF0F82E08093860380918103909147
:103560008203892B09F42EC18CE38093850310928A
:103570009102109290021092B8021092B7020E942B
:10358000F51089E797E090938F0280938E028AE787
:1035900097E090938D0280938C0280918C0387FD3D
:1035A0001EC061E00E94F10661E080918C030E94E0
:1035B000C30661E070E080E090E00E94470760E0B1
:1035C00080918C030E94C3066AE070E080E090E086
:1035D0000E94470761E080918C030E94C30680919E
:1035E000810390918203892B09F4ABC12091990347
:1035F00030919A0340919B0350919C0360E074E2E8
:1036000084EF90E00E944322205131094109510981
:1036100056954795379527952093B80064E086E83E
:1036200095E00E94A01260916A03615084E693E0E5
:103630000E94551364E082E895E00E94A0128091F8
:10364000860360E1813009F064E184E693E00E9442
:10365000551364E08EE795E00E94A0128FE88093F6
:10366000A10380916803909169038038910509F066
:1036700081C180916A0390916B038034910509F0B8
:1036800089C180918603813009F072C18FE98093EE
:10369000A10312E16AED84E693E00E945513612FC5
:1036A00084E693E00E94551361E884E693E00E946B
:1036B00055136091A10384E693E00E94551369EDD0
:1036C00084E693E00E9455138091860362E2813084
:1036D00009F061EF84E693E00E94551366E088E705
:1036E00095E00E94A0128091810390918203892B22
:1036F00009F454C120919D0330919E0340919F0392
:103700005091A00360E074E284EF90E00E944322B5
:10371000205131094109510956954795379527950B
:103720002093B8000E94FB1561E08BE00E94F10637
:1037300061E08CE00E94F10661E08DE00E94F106FC
:103740000EE111E0BCE2EB2EB1E0FB2ED8018C9132
:103750000E5F1F4F61E00E94F106E016F106B1F71F
:1037600062E080E00E94F10662E089E00E94F106DA
:1037700062E08AE00E94F1060E943D16FE01319649
:10378000FA8FE98F8091AC029091AD02009709F019
:103790000FC10E943D168091AC029091AD02892B21
:1037A00031F08091A6029091A7020E94411580E01D
:1037B00090E0892B39F30E945D06882319F30E945B
:1037C0000000E0CF61E080918A030E94F10661E091
:1037D00080918B030E94F10680918A03082E000CD1
:1037E000990BFC01E957F54FE491F0E0EE0FFF1F54
:1037F000ED58F54F25913491309392032093910326
:10380000FC01E556F54FE491E093970380918B031B
:10381000082E000C990BFC01E957F54FE491F0E0FC
:10382000EE0FFF1FED58F54FA591B491B09394039F
:10383000A0939303FC01E556F54FE491E0939803C0
:103840008C91E82BEC9380917F0390918003892BDE
:1038500009F434C01FB7F89480918B02811127C0FE
:10386000E1E9FAE08491E5EAFAE09491E82FF0E0EA
:10387000EE0FFF1FE759F54FA591B491EC91E923A5
:1038800021F461E08AE00E94C30661E08AE00E94C0
:10389000F1068CB580618CBD8CB580648CBD61E017
:1038A0008DE00E94F10661E08BE00E94F1068091BC
:1038B0008B028F5F80938B021FBF6FCE61E0809180
:1038C00088030E94F10661E0809189030E94F1065D
:1038D00080918803082E000C990BFC01E957F54FE5
:1038E000E491F0E0EE0FFF1FED58F54F2591349174
:1038F00030938E0320938D03FC01E556F54FE49140
:10390000E093950380918903082E000C990BFC012C
:10391000E957F54FE491F0E0EE0FFF1FED58F54F3A
:10392000A591B491B0939003A0938F03FC01E55649
:10393000F54FE491E09396038C91E095E823EC93A6
:103940002CCE80917F0390918003892B31F0809160
:10395000A2039091A3030E94060AE0919303F091C1
:10396000940390818091980380958923808356CE1B
:103970008FEC8DCE8036910569F480916A03909129
:103980006B03409739F480918603813029F480E1FC
:103990008093A10312E07ECE8FEAFACFE0919303E9
:1039A000F0919403808190919803892B8083BACE03
:1039B000019709F0F6CE80911401909115010197BD
:1039C000C9F424E030E0309313012093120181E028
:1039D0008093960280939702809398028093990235
:1039E000309393022093920222E030E0309315014D
:1039F000209314018091140190911501039709F00F
:103A00003FC080E090E0A0E8B2E480930E01909384
:103A10000F01A0931001B093110120E030E040E0CD
:103A200052E420930A0130930B0140930C01509310
:103A30000D0168EE73E080E090E00E94470748E0E7
:103A400050E0509313014093120181E0809396025D
:103A500080939702809398028093990280939A02B0
:103A600080939B0280939C0280939D0250939302CB
:103A70004093920284E090E09093150180931401AA
:103A80008091140190911501059709F057C080E0CD
:103A900090E0A0E8B2E480930E0190930F01A09310
:103AA0001001B093110120E030E040E052E4209397
:103AB0000A0130930B0140930C0150930D0168EE05
:103AC00073E080E090E00E94470742E050E05093AE
:103AD00009014093080188E090E0909313018093DE
:103AE000120181E08093960280939702809398025E
:103AF0008093990280939A0280939B0280939C0208
:103B000080939D0280939E0280939F028093A002E7
:103B10008093A1028093A2028093A3028093A402C7
:103B20008093A502A0E1B0E0B0939302A09392022B
:103B300086E090E090931501809314018091140128
:103B4000909115018730910531F4E2E0F0E0F093B7
:103B5000AD02E093AC02209192023091930238A31F
:103B60002F8F232B29F40196909315018093140134
:103B700080E00E949A0689E00E949A0610929502BF
:103B8000109294028091040190910501A091060188
:103B9000B09107018B8F9C8FAD8FBE8F20E030E0FE
:103BA00040EA50E4BC01CD010E944E2120910E015B
:103BB00030910F0140911001509111010E94662235
:103BC0004B015C0180920E0190920F01A0921001B6
:103BD000B0921101409000015090010160900201EB
:103BE0007090030120E030E040EA50E4C301B201EC
:103BF0000E944E2120910A0130910B0140910C014D
:103C000050910D010E9466226B017C0120E030E0A2
:103C1000A901C501B4010E942521181654F420E021
:103C200030E04AEF52E4C501B4010E94082387FD49
:103C30000DC08B8D9C8DAD8DBE8DB05880930401D1
:103C400090930501A0930601B093070120E030E0B6
:103C5000A901C701B6010E942521181664F077FA60
:103C6000709477F870944092000150920101609234
:103C700002017092030120E030E04CE652E4C701FB
:103C8000B6010E94082387FD24C020E030E0A9018E
:103C9000C501B4010E94082387FD1BC020E030E06D
:103CA00040E053E4C501B4010E94252118168CF0B0
:103CB0008091000190910101A0910201B091030156
:103CC000B0588093000190930101A0930201B0933A
:103CD0000301A0910801B0910901B8ABAFA7E09131
:103CE0001201F0911301FAABE9AB2091A8023091D7
:103CF000A9023CA72BA74091AA025091AB025AA758
:103D000049A7809116019091170198A78FA3A091C0
:103D1000A602B091A702BCA3ABA3209000013090F3
:103D200001014090020150900301E6E9F2E0FEA398
:103D3000EDA31C8E1B8E1AA219A22FA538A949A18A
:103D40005AA1421753070CF0A0C08B8D9C8D04968E
:103D50009CAB8BAB10E000E0A9A9BAA90A171B071E
:103D60000CF083C0EDA1FEA1E00FF11FFEA7EDA7AF
:103D70008081882309F476C03801A4E0660C771CA2
:103D8000AA95E1F720E030E040E450E4C501B40139
:103D90000E9466220E94D222661577050CF462C04A
:103DA00020E030E040E450E4C501B4010E94652207
:103DB0000E94D222FCE06F0E711C661677060CF48E
:103DC00051C020E030E040E450E4C701B6010E9459
:103DD00066220E94D2222B8D3C8D621773070CF451
:103DE00041C020E030E040E450E4C701B6010E9449
:103DF00065220E94D2224BA95CA94617570794F16D
:103E0000ADA5BEA51C92C501B4010E94D2227CA71B
:103E10006BA7C701B6010E94D2227AA769A7EF8DCE
:103E2000F8A13197F8A3EF8F2BA13CA12F5F3F4F53
:103E30003CA32BA357FA509457F8509420E030E05D
:103E400040EA50E4C201B1010E944E219B01AC0145
:103E5000C701B6010E9466226B017C0141E050E07F
:103E600058A74FA30F5F1F4F77CF89A19AA1019643
:103E70009AA389A3ADA1BEA11896BEA3ADA3EB8D55
:103E8000FC8D3896FC8FEB8F58CF2BA53CA530933B
:103E9000A9022093A80249A55AA55093AB024093CA
:103EA000AA028FA198A59093170180931601AF8D58
:103EB000B8A1B0939302A0939202EBA1FCA1F0935E
:103EC000A702E093A60220920001309201014092E5
:103ED000020150920301C0920A01D0920B01E092BC
:103EE0000C01F0920D010E94FB158091AC029091A3
:103EF000AD028130910509F0BFC021E02093780325
:103F000020937903909377038093760390937503BE
:103F10008093740310927103109270032AE030E0D2
:103F20003093730320937203F6E9AF2EF2E0BF2EB5
:103F3000912C812C80910801909109018816990695
:103F400084F5A501465952403A01D12CC12C8091EB
:103F5000120190911301C816D906E4F4F501EC0D95
:103F6000FD1D8081882391F0EE24E394F12C04E080
:103F700010E02CE030E0A301B601E4E0660F771F0B
:103F8000EA95E1F784E693E00E940A0E5FEFC51A16
:103F9000D50ADDCF8FEF881A980A98E0A90EB11CD8
:103FA000C9CF6091940270919502EE24E394F12CB4
:103FB00003E010E020E830E04DE350E084E693E0D9
:103FC0000E940A0E60910A0170910B0180910C0110
:103FD00090910D010E94D2226B0160910E017091AF
:103FE0000F0180911001909111010E94D222CB010A
:103FF00043E050E0B6010E94E90E61E08BE00E94D0
:10400000C30661E08CE00E94C30661E08DE00E947F
:10401000C3060E94B7136AE070E080E090E00E945F
:1040200047078091A6029091A7020E9441158091B6
:10403000160190911701892B09F4ADCB6091AA026A
:104040007091AB0241E050E08091A8029091A902EA
:104050000E94E90E8091AA029091AB020197909381
:10406000AB028093AA02803491050CF094CB10929D
:104070001701109216018FCB029709F0BECF81E095
:104080008093780380937903A1E0B0E0B093770345
:10409000A0937603B0937503A0937403E4E1F0E07A
:1040A000F0937103E0937003F0937303E093720352
:1040B00081EA91E00E942A1624E130E030937103F6
:1040C0002093700348E250E05093730340937203CF
:1040D0008091A6029091A7021C8A1B8A1E8A1D8AC3
:1040E000188E1F8A4AE0BE016F5F7F4F0E94F0204A
:1040F000E98DFA8D01900020E9F73197AF01898DA4
:104100009A8D481B590BBE016F5F7F4FCE014396BE
:104110000E94DC161A8219821C821B821E821D825A
:1041200046E050E06DEA71E0CE0101960E94DC1697
:10413000EB88FC88E114F104B9F10F89188D0115A1
:104140001105B1F08D819E81080F191FB801CE01B4
:1041500001960E94B416882339F129813A818D8114
:104160009E81B701820F931F0E9432251E830D830B
:104170004D815E8169817A8184E693E00E947B07AC
:104180006CE771E084E693E00E941B1689819A81B6
:10419000009711F00E94D7238B899C89009709F41E
:1041A0002CCF0E94D72329CF89819A81009711F0C3
:1041B0000E94D7231A8219821E821D821C821B82B2
:1041C000D7CF84E591E09093650380936403809159
:1041D000830390918403009711F00C94D7230895E2
:1041E000BB274A3031F4992322F4BDE290958195A2
:1041F0009F4F0C94FC20BB27FB015527AA27880F53
:10420000991FAA1FA41710F0A41B83955051B9F74A
:10421000A05DAA3308F0A95DA193009779F7B111C9
:10422000B1931192CB010C941521DC01FC01672F95
:1042300071917723E1F7329704C07C916D9370837D
:104240006291AE17BF07C8F308950E942A2108F4AF
:1042500081E00895990F0008550FAA0BE0E8FEEFE2
:1042600016161706E807F907C0F012161306E4073A
:10427000F50798F0621B730B840B950B39F40A2633
:1042800061F0232B242B252B21F408950A2609F411
:10429000A140A6958FEF811D811D08950E94612187
:1042A0000C94D2210E94C42138F00E94CB2120F02E
:1042B000952311F00C94BB210C94C12111240C9472
:1042C00006220E94E32170F3959FC1F3950F50E001
:1042D000551F629FF001729FBB27F00DB11D639FB8
:1042E000AA27F00DB11DAA1F649F6627B00DA11D5E
:1042F000661F829F2227B00DA11D621F739FB00D04
:10430000A11D621F839FA00D611D221F749F332773
:10431000A00D611D231F849F600D211D822F762F0C
:104320006A2F11249F5750409AF0F1F088234AF0E9
:10433000EE0FFF1FBB1F661F771F881F9150504055
:10434000A9F79E3F510580F00C94BB210C940622E6
:104350005F3FE4F3983ED4F3869577956795B795DC
:10436000F795E7959F5FC1F7FE2B880F911D9695F6
:10437000879597F9089597F99F6780E870E060E066
:1043800008959FEF80EC089500240A9416161706EE
:1043900018060906089500240A9412161306140636
:1043A00005060895092E0394000C11F4882352F099
:1043B000BB0F40F4BF2B11F460FF04C06F5F7F4F51
:1043C0008F4F9F4F089557FD9058440F551F59F038
:1043D0005F3F71F04795880F97FB991F61F09F3FF2
:1043E00079F087950895121613061406551FF2CF1B
:1043F0004695F1DF08C0161617061806991FF1CF6B
:1044000086957105610508940895E894BB27662791
:104410007727CB0197F908952F923F924F925F92A1
:104420006F927F928F929F92AF92BF92CF92DF92C4
:10443000EF92FF920F931F93CF93DF93CDB7DEB729
:10444000CA1BDB0B0FB6F894DEBF0FBECDBF0994BD
:104450002A88398848885F846E847D848C849B8414
:10446000AA84B984C884DF80EE80FD800C811B8122
:10447000AA81B981CE0FD11D0FB6F894DEBF0FBE51
:10448000CDBFED010895A1E21A2EAA1BBB1BFD01B1
:104490000DC0AA1FBB1FEE1FFF1FA217B307E40723
:1044A000F50720F0A21BB30BE40BF50B661F771F7B
:1044B000881F991F1A9469F760957095809590955B
:1044C0009B01AC01BD01CF0108955058BB27AA271D
:1044D0000E947D220C94D2210E94C42138F00E94B7
:1044E000CB2120F039F49F3F19F426F40C94C1211C
:1044F0000EF4E095E7FB0C94BB21E92F0E94E32129
:1045000058F3BA17620773078407950720F079F408
:10451000A6F50C9405220EF4E0950B2EBA2FA02DD3
:104520000B01B90190010C01CA01A0011124FF2760
:10453000591B99F0593F50F4503E68F11A16F0405B
:10454000A22F232F342F4427585FF3CF469537955A
:104550002795A795F0405395C9F77EF41F16BA0B1F
:10456000620B730B840BBAF09150A1F0FF0FBB1FCD
:10457000661F771F881FC2F70EC0BA0F621F731F16
:10458000841F48F4879577956795B795F7959E3F73
:1045900008F0B0CF9395880F08F09927EE0F979504
:1045A000879508950E94D9226894B1110C9406222F
:1045B00008950E94EB2188F09F5798F0B92F992712
:1045C000B751B0F0E1F0660F771F881F991F1AF0FE
:1045D000BA95C9F714C0B13091F00E940522B1E03C
:1045E00008950C940522672F782F8827B85F39F03B
:1045F000B93FCCF3869577956795B395D9F73EF497
:1046000090958095709561957F4F8F4F9F4F08953E
:104610000E942A2108F48FEF089597FB072E16F4C5
:10462000009407D077FD09D00E94272307FC05D00E
:104630003EF4909581959F4F0895709561957F4FB9
:104640000895EE0FFF1F0590F491E02D0994AA1B29
:10465000BB1B51E107C0AA1FBB1FA617B70710F06D
:10466000A61BB70B881F991F5A95A9F7809590959F
:10467000BC01CD0108950F931F93CF93DF93823038
:10468000910510F482E090E0E091A603F091A70379
:1046900030E020E0B0E0A0E0309799F4211531053A
:1046A00009F44AC0281B390B24303105D8F58A811A
:1046B0009B816115710589F1FB0193838283FE0162
:1046C00011C0408151810281138148175907E0F0E0
:1046D0004817590799F4109761F012960C931297A6
:1046E00013961C933296CF01DF91CF911F910F91BA
:1046F00008950093A6031093A703F4CF2115310565
:1047000051F04217530738F0A901DB019A01BD01AE
:10471000DF01F801C1CFEF01F9CF9093A703809398
:10472000A603CDCFFE01E20FF31F81939193225098
:10473000310939832883D7CF2091A4033091A50371
:10474000232B41F420911A0130911B013093A503D2
:104750002093A403209118013091190121153105EE
:1047600041F42DB73EB740911C0150911D01241B0F
:10477000350BE091A403F091A503E217F307A0F431
:104780002E1B3F0B2817390778F0AC014E5F5F4FA7
:104790002417350748F04E0F5F1F5093A503409331
:1047A000A403819391939FCFF0E0E0E09CCFCF935F
:1047B000DF930097E9F0FC01329713821282A091F7
:1047C000A603B091A703ED0130E020E01097A1F41B
:1047D00020813181820F931F2091A4033091A50382
:1047E0002817390709F061C0F093A503E093A403EB
:1047F000DF91CF910895EA01CE17DF07E8F54A81EE
:104800005B819E0141155105B1F7E901FB83EA8304
:1048100049915991C40FD51FEC17FD0761F48081B0
:1048200091810296840F951FE90199838883828183
:1048300093819B838A83F0E0E0E012968D919C91B6
:1048400013970097B9F52D913C911197CD010296E0
:10485000820F931F2091A4033091A50328173907D5
:1048600039F6309751F51092A7031092A603B09332
:10487000A503A093A403BCCFD383C28340815181FD
:10488000840F951FC817D90761F44E5F5F4F888169
:104890009981480F591F518340838A819B8193835B
:1048A00082832115310509F0B0CFF093A703E0937F
:1048B000A6039ECFFD01DC01C0CF13821282D7CFA9
:1048C000B0E0A0E0E6E6F4E20C940E228C01009742
:1048D00051F4CB010E943B238C01C801CDB7DEB758
:1048E000E0E10C942A22FC01E60FF71F9C01225004
:1048F0003109E217F30708F49DC0D901CD91DC918D
:104900001197C617D70798F0C530D10530F3CE01FF
:1049100004978617970708F3C61BD70B2297C193F6
:10492000D1936D937C93CF010E94D723D6CF5B01A7
:10493000AC1ABD0A4C018C0E9D1EA091A603B0912D
:10494000A703512C412CF12CE12C109731F58091CB
:10495000A4039091A5038815990509F05CC046163B
:10496000570608F058C080911801909119010097DE
:1049700041F48DB79EB740911C0150911D01841BDD
:10498000950BE817F90708F055C0F093A503E093DD
:10499000A403F90171836083A0CF8D919C9111973D
:1049A00012966C90129713967C901397A815B905E0
:1049B00059F56C0142E0C40ED11CCA14DB0420F18D
:1049C000AC014A195B09DA011296159780F06282F0
:1049D000738251834083D9016D937C93E114F10478
:1049E00071F0D7011396FC93EE93129776CF22962F
:1049F0008C0F9D1FF90191838083F301EFCFF0931A
:104A0000A703E093A60369CF4816590608F42C01C2
:104A10007D01D3019ACFCB010E943B237C010097FB
:104A200049F0AE01B8010E942225C8010E94D72397
:104A3000870153CF10E000E050CF81E090E0F89480
:104A40000C943925FB01DC0102C001900D9241500C
:104A50005040D8F70895DC0101C06D93415050409B
:104A6000E0F70895FB01DC0101900D920020E1F7D1
:104A7000089515E0C5E6D5E004C0FE010E9421239B
:0C4A80002196C636D107C9F7F894FFCF85
:104A8C000000803F0000803F010000000042000059
:104A9C0080420400010001000000A8038000020015
:104AAC0003000400050006000700080000000000D9
:104ABC00F0057B0791053D06C205A005B405000075
:104ACC0000008A115D113E159005561143113411E9
:104ADC0000000000440C7B073E15CD104F099005DB
:104AEC00B80FC10EDD0ED10E201090050A0AE81485
:104AFC00BF0808090A0EED0D750D160D0D0A003EC6
:104B0C00204261736C617400202043696B697300EF
:104B1C0020204261736C6174003E2043696B6973A1
:104B2C00004F79756E2062697474692100536B6F44
:044B3C00723A2000A9
:00000001FF
